{
  "contractName": "BoredApe",
  "abi": [
    {
      "constant": true,
      "inputs": [],
      "name": "nextId",
      "outputs": [
        {
          "name": "",
          "type": "uint256"
        }
      ],
      "payable": false,
      "stateMutability": "view",
      "type": "function"
    },
    {
      "constant": true,
      "inputs": [
        {
          "name": "",
          "type": "uint256"
        }
      ],
      "name": "items",
      "outputs": [
        {
          "name": "name",
          "type": "string"
        },
        {
          "name": "description",
          "type": "string"
        },
        {
          "name": "imageUrl",
          "type": "string"
        }
      ],
      "payable": false,
      "stateMutability": "view",
      "type": "function"
    },
    {
      "anonymous": false,
      "inputs": [
        {
          "indexed": true,
          "name": "tokenId",
          "type": "uint256"
        },
        {
          "indexed": false,
          "name": "name",
          "type": "string"
        },
        {
          "indexed": false,
          "name": "imageUrl",
          "type": "string"
        }
      ],
      "name": "NftCreated",
      "type": "event"
    },
    {
      "anonymous": false,
      "inputs": [
        {
          "indexed": true,
          "name": "tokenId",
          "type": "uint256"
        },
        {
          "indexed": false,
          "name": "newName",
          "type": "string"
        },
        {
          "indexed": false,
          "name": "newDescription",
          "type": "string"
        }
      ],
      "name": "NftUpdated",
      "type": "event"
    },
    {
      "constant": false,
      "inputs": [
        {
          "name": "_name",
          "type": "string"
        },
        {
          "name": "_description",
          "type": "string"
        },
        {
          "name": "_imageUrl",
          "type": "string"
        }
      ],
      "name": "createNft",
      "outputs": [
        {
          "name": "",
          "type": "uint256"
        }
      ],
      "payable": false,
      "stateMutability": "nonpayable",
      "type": "function"
    },
    {
      "constant": true,
      "inputs": [
        {
          "name": "_id",
          "type": "uint256"
        }
      ],
      "name": "readNft",
      "outputs": [
        {
          "name": "name",
          "type": "string"
        },
        {
          "name": "description",
          "type": "string"
        },
        {
          "name": "imageUrl",
          "type": "string"
        }
      ],
      "payable": false,
      "stateMutability": "view",
      "type": "function"
    },
    {
      "constant": false,
      "inputs": [
        {
          "name": "_id",
          "type": "uint256"
        },
        {
          "name": "_newName",
          "type": "string"
        },
        {
          "name": "_newDescription",
          "type": "string"
        }
      ],
      "name": "updateNft",
      "outputs": [],
      "payable": false,
      "stateMutability": "nonpayable",
      "type": "function"
    },
    {
      "constant": true,
      "inputs": [],
      "name": "getTotalNfts",
      "outputs": [
        {
          "name": "",
          "type": "uint256"
        }
      ],
      "payable": false,
      "stateMutability": "view",
      "type": "function"
    }
  ],
  "bytecode": "0x608060405234801561001057600080fd5b50610fea806100206000396000f3fe608060405260043610610072576000357c010000000000000000000000000000000000000000000000000000000090048063497a98501461007757806361b8ce8c1461028157806366cd1aab146102ac57806375eb5e5c146104385780639ffd36b0146105a1578063bfb231d2146105cc575b600080fd5b34801561008357600080fd5b5061026b6004803603606081101561009a57600080fd5b81019080803590602001906401000000008111156100b757600080fd5b8201836020820111156100c957600080fd5b803590602001918460018302840111640100000000831117156100eb57600080fd5b91908080601f016020809104026020016040519081016040528093929190818152602001838380828437600081840152601f19601f8201169050808301925050505050505091929192908035906020019064010000000081111561014e57600080fd5b82018360208201111561016057600080fd5b8035906020019184600183028401116401000000008311171561018257600080fd5b91908080601f016020809104026020016040519081016040528093929190818152602001838380828437600081840152601f19601f820116905080830192505050505050509192919290803590602001906401000000008111156101e557600080fd5b8201836020820111156101f757600080fd5b8035906020019184600183028401116401000000008311171561021957600080fd5b91908080601f016020809104026020016040519081016040528093929190818152602001838380828437600081840152601f19601f820116905080830192505050505050509192919290505050610758565b6040518082815260200191505060405180910390f35b34801561028d57600080fd5b5061029661090f565b6040518082815260200191505060405180910390f35b3480156102b857600080fd5b506102e5600480360360208110156102cf57600080fd5b8101908080359060200190929190505050610915565b60405180806020018060200180602001848103845287818151815260200191508051906020019080838360005b8381101561032d578082015181840152602081019050610312565b50505050905090810190601f16801561035a5780820380516001836020036101000a031916815260200191505b50848103835286818151815260200191508051906020019080838360005b83811015610393578082015181840152602081019050610378565b50505050905090810190601f1680156103c05780820380516001836020036101000a031916815260200191505b50848103825285818151815260200191508051906020019080838360005b838110156103f95780820151818401526020810190506103de565b50505050905090810190601f1680156104265780820380516001836020036101000a031916815260200191505b50965050505050505060405180910390f35b34801561044457600080fd5b5061059f6004803603606081101561045b57600080fd5b81019080803590602001909291908035906020019064010000000081111561048257600080fd5b82018360208201111561049457600080fd5b803590602001918460018302840111640100000000831117156104b657600080fd5b91908080601f016020809104026020016040519081016040528093929190818152602001838380828437600081840152601f19601f8201169050808301925050505050505091929192908035906020019064010000000081111561051957600080fd5b82018360208201111561052b57600080fd5b8035906020019184600183028401116401000000008311171561054d57600080fd5b91908080601f016020809104026020016040519081016040528093929190818152602001838380828437600081840152601f19601f820116905080830192505050505050509192919290505050610b3a565b005b3480156105ad57600080fd5b506105b6610c9d565b6040518082815260200191505060405180910390f35b3480156105d857600080fd5b50610605600480360360208110156105ef57600080fd5b8101908080359060200190929190505050610ca7565b60405180806020018060200180602001848103845287818151815260200191508051906020019080838360005b8381101561064d578082015181840152602081019050610632565b50505050905090810190601f16801561067a5780820380516001836020036101000a031916815260200191505b50848103835286818151815260200191508051906020019080838360005b838110156106b3578082015181840152602081019050610698565b50505050905090810190601f1680156106e05780820380516001836020036101000a031916815260200191505b50848103825285818151815260200191508051906020019080838360005b838110156107195780820151818401526020810190506106fe565b50505050905090810190601f1680156107465780820380516001836020036101000a031916815260200191505b50965050505050505060405180910390f35b60008060015490506060604051908101604052808681526020018581526020018481525060008083815260200190815260200160002060008201518160000190805190602001906107aa929190610e99565b5060208201518160010190805190602001906107c7929190610e99565b5060408201518160020190805190602001906107e4929190610e99565b50905050807fc7dc56ec45dafc22004167d5dd0799d51879f0c437197ea73861574890d900458685604051808060200180602001838103835285818151815260200191508051906020019080838360005b83811015610850578082015181840152602081019050610835565b50505050905090810190601f16801561087d5780820380516001836020036101000a031916815260200191505b50838103825284818151815260200191508051906020019080838360005b838110156108b657808201518184015260208101905061089b565b50505050905090810190601f1680156108e35780820380516001836020036101000a031916815260200191505b5094505050505060405180910390a2600160008154809291906001019190505550809150509392505050565b60015481565b6060806060600080858152602001908152602001600020600001600080868152602001908152602001600020600101600080878152602001908152602001600020600201828054600181600116156101000203166002900480601f0160208091040260200160405190810160405280929190818152602001828054600181600116156101000203166002900480156109ee5780601f106109c3576101008083540402835291602001916109ee565b820191906000526020600020905b8154815290600101906020018083116109d157829003601f168201915b50505050509250818054600181600116156101000203166002900480601f016020809104026020016040519081016040528092919081815260200182805460018160011615610100020316600290048015610a8a5780601f10610a5f57610100808354040283529160200191610a8a565b820191906000526020600020905b815481529060010190602001808311610a6d57829003601f168201915b50505050509150808054600181600116156101000203166002900480601f016020809104026020016040519081016040528092919081815260200182805460018160011615610100020316600290048015610b265780601f10610afb57610100808354040283529160200191610b26565b820191906000526020600020905b815481529060010190602001808311610b0957829003601f168201915b505050505090509250925092509193909250565b816000808581526020019081526020016000206000019080519060200190610b63929190610f19565b50806000808581526020019081526020016000206001019080519060200190610b8d929190610f19565b50827f8c5ce88c9e8f50e4a72f773ff9acb6ba0abc64de2e989a8e1a4739182e3a3f568383604051808060200180602001838103835285818151815260200191508051906020019080838360005b83811015610bf6578082015181840152602081019050610bdb565b50505050905090810190601f168015610c235780820380516001836020036101000a031916815260200191505b50838103825284818151815260200191508051906020019080838360005b83811015610c5c578082015181840152602081019050610c41565b50505050905090810190601f168015610c895780820380516001836020036101000a031916815260200191505b5094505050505060405180910390a2505050565b6000600154905090565b6000602052806000526040600020600091509050806000018054600181600116156101000203166002900480601f016020809104026020016040519081016040528092919081815260200182805460018160011615610100020316600290048015610d535780601f10610d2857610100808354040283529160200191610d53565b820191906000526020600020905b815481529060010190602001808311610d3657829003601f168201915b505050505090806001018054600181600116156101000203166002900480601f016020809104026020016040519081016040528092919081815260200182805460018160011615610100020316600290048015610df15780601f10610dc657610100808354040283529160200191610df1565b820191906000526020600020905b815481529060010190602001808311610dd457829003601f168201915b505050505090806002018054600181600116156101000203166002900480601f016020809104026020016040519081016040528092919081815260200182805460018160011615610100020316600290048015610e8f5780601f10610e6457610100808354040283529160200191610e8f565b820191906000526020600020905b815481529060010190602001808311610e7257829003601f168201915b5050505050905083565b828054600181600116156101000203166002900490600052602060002090601f016020900481019282601f10610eda57805160ff1916838001178555610f08565b82800160010185558215610f08579182015b82811115610f07578251825591602001919060010190610eec565b5b509050610f159190610f99565b5090565b828054600181600116156101000203166002900490600052602060002090601f016020900481019282601f10610f5a57805160ff1916838001178555610f88565b82800160010185558215610f88579182015b82811115610f87578251825591602001919060010190610f6c565b5b509050610f959190610f99565b5090565b610fbb91905b80821115610fb7576000816000905550600101610f9f565b5090565b9056fea165627a7a72305820053c91b8284c1e26a30e61b22684e4b92e7de4c8e300b5818cae70d3cac532bf0029",
  "source": "// SPDX-License-Identifier: MIT\npragma solidity >=0.4.22 <0.9.0;\n\n\n/**\n * @title Bored Ape NFT\n * @dev A super basic \"NFT-like\" contract for demo CRUD operations.\n *      NOT an ERC-721 or any official standard, just for learning!\n */\ncontract BoredApe {\n    // Define the NFT structure\n    struct NftItem {\n        string name;\n        string description;\n        string imageUrl;\n    }\n\n    // Mapping from ID to NftItem\n    mapping(uint => NftItem) public items;\n    \n    // Counter for unique IDs\n    uint public nextId;\n\n    // Events for better tracking\n    event NftCreated(uint indexed tokenId, string name, string imageUrl);\n    event NftUpdated(uint indexed tokenId, string newName, string newDescription);\n    \n    /**\n     * @dev Create a new \"NftItem\" and store it in 'items'\n     * @param _name The name of the NFT\n     * @param _description A description of the NFT\n     * @param _imageUrl URL pointing to the NFT's image\n     * @return tokenId The ID assigned to the newly created item\n     */\n    function createNft(\n        string memory _name,\n        string memory _description,\n        string memory _imageUrl\n    ) public returns (uint) {\n        uint tokenId = nextId;\n        items[tokenId] = NftItem(_name, _description, _imageUrl);\n        emit NftCreated(tokenId, _name, _imageUrl);\n        nextId++;\n        return tokenId;\n    }\n    \n    /**\n     * @dev Retrieve an NftItem by ID\n     * @param _id The ID of the item to retrieve\n     * @return name The name of the item\n     * @return description The description of the item\n     * @return imageUrl The image URL of the item\n     */\n    function readNft(uint _id) public view returns (\n        string memory name,\n        string memory description,\n        string memory imageUrl\n    ) {\n        return (items[_id].name, items[_id].description, items[_id].imageUrl);\n    }\n\n    /**\n     * @dev Update an existing NftItem's data\n     * @param _id The ID of the item to update\n     * @param _newName The new name\n     * @param _newDescription The new description\n     */\n    function updateNft(\n        uint _id,\n        string memory _newName,\n        string memory _newDescription\n    ) public {\n        items[_id].name = _newName;\n        items[_id].description = _newDescription;\n        emit NftUpdated(_id, _newName, _newDescription);\n    }\n\n\n    /**\n     * @dev Get total number of NFTs created\n     * @return total The total number of NFTs (nextId + 1)\n     */\n    function getTotalNfts() public view returns (uint) {\n        return nextId;\n    }\n}\n",
  "sourcePath": "/home/gridlex-bhanu/Desktop/NFT_marketplace/DeFi_Origin/resource/DemoSmartContracts/contracts/BoredApe.sol",
  "compiler": {
    "name": "solc",
    "version": "0.5.1+commit.c8a2cb62.Emscripten.clang"
  },
  "schemaVersion": "3.4.16",
  "updatedAt": "2025-02-23T16:01:42.647Z",
  "networkType": "ethereum",
  "devdoc": {
    "details": "A super basic \"NFT-like\" contract for demo CRUD operations.     NOT an ERC-721 or any official standard, just for learning!",
    "methods": {
      "createNft(string,string,string)": {
        "details": "Create a new \"NftItem\" and store it in 'items'",
        "params": {
          "_description": "A description of the NFT",
          "_imageUrl": "URL pointing to the NFT's image",
          "_name": "The name of the NFT"
        },
        "return": "tokenId The ID assigned to the newly created item"
      },
      "getTotalNfts()": {
        "details": "Get total number of NFTs created",
        "return": "total The total number of NFTs (nextId + 1)"
      },
      "readNft(uint256)": {
        "details": "Retrieve an NftItem by ID",
        "params": {
          "_id": "The ID of the item to retrieve"
        },
        "return": "name The name of the itemdescription The description of the itemimageUrl The image URL of the item"
      },
      "updateNft(uint256,string,string)": {
        "details": "Update an existing NftItem's data",
        "params": {
          "_id": "The ID of the item to update",
          "_newDescription": "The new description",
          "_newName": "The new name"
        }
      }
    },
    "title": "Bored Ape NFT"
  },
  "userdoc": {
    "methods": {}
  }
}